:100000000C9464000C948C000C948C000C948C0068
:100010000C948C000C948C000C948C000C948C0030
:100020000C948C000C948C000C948C000C948C0020
:100030000C948C000C948C000C948C000C948C0010
:100040000C94FD060C948C000C9427080C947508F5
:100050000C948C000C948C000C948C000C948C00F0
:100060000C948C000C948C000000000024002700ED
:100070002A0000000000250028002B0000000000DE
:1000800023002600290004040404040404040202DA
:100090000202020203030303030301020408102007
:1000A0004080010204081020010204081020000012
:1000B0000007000201000003040600000000000029
:1000C00000007C05E109750511241FBECFEFD8E0C3
:1000D000DEBFCDBF12E0A0E0B1E0E6EFF5E102C087
:1000E00005900D92AC30B107D9F716E0ACE0B2E064
:1000F00001C01D92AE3EB107E1F710E0C6ECD0E0C2
:1001000004C02297FE010E94B30AC23CD107C9F77E
:100110000E94370A0C94EE0A0C940000FC01882718
:100120009927E89421912032E9F3293010F02E30FC
:10013000C8F32B3241F02D3239F4689404C00E9488
:100140000C01820F911D219120532A30C0F31EF41F
:10015000909581959F4F08954CE052E00E94DA00FF
:100160000895FC018191861721F08823D9F79927FA
:1001700008953197CF010895FB01DC018D91019025
:1001800080190110D9F3990B0895FB01DC0101904E
:100190000D920020E1F70895DC0199278D918823C5
:1001A00041F0FB01019008160110E1F7B9F7119732
:1001B000CD010895009731F4DA018D919C9100975B
:1001C00009F40EC0DC01FB013D912191222319F0BD
:1001D0003217C9F3FACF332331F4DA011D921C929E
:1001E0008827992708951197AF93BF93FB013D91FD
:1001F0002191321771F4332321F48827992711971D
:1002000002C01E921196FA01A193B0839F918F9123
:100210000895222369F7EACF7AE0979F902D879F70
:10022000802D910D11240895AEE0B0E0EAE1F1E0F7
:100230000C94C50A0D891E8986E08C831A83098374
:100240008FEF9FE79E838D839E01275E3F4FCE01F8
:1002500001966F89788DA9010E9438012F81388518
:10026000020F131FF80110822E96E4E00C94E10AAD
:10027000ABE0B0E0EEE3F1E00C94B70A3C012B01F7
:100280005A01FC0117821682838181FD03C06FEF42
:100290007FEFC6C19AE0892E1E010894211C311CF3
:1002A000F3012381F20123FD859123FF81912F0129
:1002B000882309F4B2C1853239F423FD859123FFE7
:1002C00081912F01853229F490E0B3010E942B0324
:1002D000E7CF982FFF24EE249924FFE1FF15D0F0FB
:1002E0009B3269F09C3228F4903259F0933291F4A9
:1002F0000EC09D3249F0903369F441E024C052E0D1
:10030000F52A84E0F82A28C098E0F92A25C0E0E11F
:10031000FE2A22C0F7FC29C0892F80538A3070F44E
:10032000F6FE05C0989C902C1124980E15C0E89CF0
:10033000E02C1124E80EF0E2FF2A0EC09E3229F4D0
:10034000F6FC6BC140E4F42A07C09C3619F450E86F
:10035000F52A02C0983649F4F20123FD959123FF56
:1003600091912F01992309F0B8CF892F85548330BB
:1003700018F08052833038F444E050E0A40EB51EEB
:100380005FE359830FC0933631F0933779F093359B
:1003900009F056C020C0F5018081898342E050E019
:1003A000A40EB51E610101E010E012C0F501C0808D
:1003B000D180F6FC03C06FEF7FEF02C0692D70E0C3
:1003C00042E050E0A40EB51EC6010E9420038C013D
:1003D0005FE7F52214C0F501C080D180F6FC03C0B0
:1003E0006FEF7FEF02C0692D70E042E050E0A40E95
:1003F000B51EC6010E9415038C0150E8F52AF3FED4
:1004000007C01AC080E290E0B3010E942B03EA9477
:100410008E2D90E008171907A8F30EC0F601F7FC1F
:100420008591F7FE81916F0190E0B3010E942B034B
:10043000E110EA94015010400115110579F7EAC066
:10044000943611F0993669F5F7FE08C0F501208160
:1004500031814281538184E090E00AC0F5018081BE
:1004600091819C01442737FD4095542F82E090E014
:10047000A80EB91E9FE6F92257FF09C05095409576
:10048000309521953F4F4F4F5F4FE0E8FE2ACA015C
:10049000B901A1012AE030E00E945703D82ED218FA
:1004A00040C0953729F41F2D1F7E2AE030E01DC083
:1004B0001F2D197F9F3661F0903720F4983509F091
:1004C000ACC00FC0903739F0983709F0A6C004C00F
:1004D00028E030E00AC0106114FD146020E130E033
:1004E00004C014FD166020E132E017FF08C0F501DA
:1004F000608171818281938144E050E008C0F50100
:1005000080819181BC0180E090E042E050E0A40E47
:10051000B51EA1010E945703D82ED2188FE7F82EDE
:10052000F122F6FE0BC05EEFF522D91438F4F4FE8A
:1005300007C0F2FC05C08FEEF82202C01D2D01C0DD
:10054000192DF4FE0DC0FE01ED0DF11D80818033EB
:1005500019F499EEF92208C01F5FF2FE05C003C02E
:100560008F2D867809F01F5F0F2DF3FC14C0F0FE6D
:100570000FC01E1510F09D2C0BC09D2C9E0C911AC7
:100580001E2D06C080E290E0B3010E942B031F5F86
:100590001E15C0F304C01E1510F4E11A01C0EE24AC
:1005A00004FF0FC080E390E0B3010E942B0302FF21
:1005B0001DC001FD03C088E790E00EC088E590E013
:1005C0000BC0802F867891F001FF02C08BE201C042
:1005D00080E2F7FC8DE290E0B3010E942B0306C09D
:1005E00080E390E0B3010E942B039A94D914C0F3E6
:1005F000DA94F101ED0DF11D808190E0B3010E94CC
:100600002B03DD20A9F706C080E290E0B3010E9431
:100610002B03EA94EE20C1F743CEF3016681778184
:10062000CB012B96E2E10C94D30AFC0105906150BA
:1006300070400110D8F7809590958E0F9F1F0895F8
:10064000FC016150704001900110D8F780959095A1
:100650008E0F9F1F08950F931F93CF93DF938C01ED
:10066000EB018B8181FF1BC082FF0DC02E813F817A
:100670008C819D812817390764F4E881F981019301
:10068000F983E88306C0E885F985802F0995892BD1
:1006900031F48E819F8101969F838E8302C00FEF7C
:1006A0001FEFC801DF91CF911F910F910895FA01BB
:1006B000AA27283051F1203181F1E8946F936E7FA1
:1006C0006E5F7F4F8F4F9F4FAF4FB1E03ED0B4E092
:1006D0003CD0670F781F891F9A1FA11D680F791FD3
:1006E0008A1F911DA11D6A0F711D811D911DA11DE4
:1006F00020D009F468943F912AE0269F11243019F4
:10070000305D3193DEF6CF010895462F4770405D8E
:100710004193B3E00FD0C9F7F6CF462F4F70405D3D
:100720004A3318F0495D31FD4052419302D0A9F798
:10073000EACFB4E0A6959795879577956795BA9592
:10074000C9F700976105710508959B01AC010A2E58
:1007500006945795479537952795BA95C9F7620F2F
:10076000731F841F951FA01D0895FC017183608372
:100770000895FC01128E138E10A20895FC01868943
:1007800097890895FC0180A10895CF93DF93DC0140
:10079000EA0190968C919097681760F4E62FF0E04C
:1007A0003196EE0FFF1FEA0FFB1F808191810E949F
:1007B0008E008883DF91CF910895EF92FF920F937F
:1007C0001F93CF93DF93EC01088D198DEE8CFF8C76
:1007D000C801B7010E94CC00009731F1C801B701F0
:1007E0000E94AC009F8B8E8B6E8D7F8D80E090E0A1
:1007F0000E94AC007E0100E010E012C0F70193837C
:1008000082830F5F1F4F6E8D7F8D80E090E00E948E
:10081000AC0022E030E0E20EF31E0A30110511F0C8
:10082000009761F708A303C01F8B0E8B18A281E00D
:100830008B8FDF91CF911F910F91FF90EF900895D3
:100840001F93CF93DF93EC012FC0A881B981ED9165
:10085000FC9111970680F781E02DCD010995182FA5
:100860008C8D9D8D612F70E00E94B1009C018A8D5E
:10087000232B99F0882351F0E88DF98DE80FF11DB5
:100880001082CE010E94DD0381E01DC08881998124
:1008900064E071E00E948C0A07C0E88DF98DE80FD2
:1008A000F11D10838F5F8A8FE881F981A081B1816A
:1008B00014962D913C911597CF01F90109951816C1
:1008C00019061CF280E0DF91CF911F9108950F93DC
:1008D0001F938C01FC01808D918D0E946506F801AB
:1008E000868D978D0E946506F801848D958D0E94F6
:1008F00065061F910F9108950F931F938C01FC01C2
:100900001182108280E890E00E94DE05F801808F5D
:10091000918F178A168A83E090E00E94DE05F80125
:10092000848F958F68E071E00E94C50083E090E0BD
:100930000E94DE05F801868F978F6BE071E00E94C0
:10094000C500F801128E138E10A21F910F91089509
:1009500008950895FC017183608308956EBD0DB400
:1009600007FEFDCF8EB50895AF92BF92CF92DF9272
:10097000EF92FF920F931F93DF93CF930F92CDB718
:10098000DEB77C01B82EAF2C0E942004882309F426
:100990006EC0C7010E94BE036C016EE071E00E9450
:1009A000BC00009779F5C7010E94C203882321F19A
:1009B000C70160E0AE014F5F5F4F0E94C503D701E2
:1009C00091968D919C91929769810E94AE0400D07E
:1009D00000D000D0EDB7FEB731960EE012E0ADB713
:1009E000BEB712961C930E93119723E131E0338327
:1009F00022838483158227C0F7018081918166E27A
:100A000071E02FC0C60169E471E00E94BC0000974C
:100A100031F4D7018D919C916EE471E022C000D039
:100A200000D000D0EDB7FEB731960EE012E0ADB7C2
:100A3000BEB712961C930E9311978DEA91E09383A3
:100A40008283D582C4820E941401EDB7FEB7369628
:100A50000FB6F894FEBF0FBEEDBFD7018D919C91EC
:100A6000B8010E948C0A8B2D9A2D0E94B9030F9019
:100A7000CF91DF911F910F91FF90EF90DF90CF907A
:100A8000BF90AF9008950E9467040895EF92FF927F
:100A90000F931F938C017B010E947C04F801F2A24A
:100AA000E1A21F910F91FF90EF9008958130910581
:100AB00071F46F5F7F4FC1F48EE096E00E94A8044E
:100AC00080E196E06EE076E00E9446050895892B6D
:100AD00059F46F5F7F4F41F480E196E00E94430537
:100AE0008EE096E00E94A904089580E090E06FEF08
:100AF0007FEF0E945605089581E090E06FEF7FEF51
:100B00000E945605089580E196E00E94B4040E9478
:100B100045072091350630913606409137065091B1
:100B20003806621B730B840B950B2091F4013091F6
:100B3000F5014091F6015091F70126173707480754
:100B4000590750F40E9445076093350670933606A6
:100B5000809337069093380661E070E080E090E083
:100B60000E9453078091330690913406019690932A
:100B700034068093330608950F931F930AEC16E012
:100B8000C80140E855E260E070E00E94B00880E1F2
:100B900096E0B8010E94B5038EE096E0B8010E948D
:100BA000AA048091F20161E00E94E707C8016DECA0
:100BB00071E00E948C0A1F910F9108950F931F936B
:100BC000CF93DF93BC018230910510F462E070E0B6
:100BD000E091EC06F091ED06A0E0B0E040E050E0DE
:100BE00024C08081918186179707D0F086179707D8
:100BF00071F482819381109729F013969C938E93C0
:100C000012972CC09093ED068093EC0627C04115F7
:100C1000510519F08417950718F4EF018D01AC0107
:100C2000DF01828193819C01F9013097D1F6411552
:100C30005105F9F0CA01861B970B8430910580F4A9
:100C40008A819B810115110521F0F801938382832C
:100C500004C09093ED068093EC06FE0132962FC0FF
:100C6000FE01E80FF91F61937193029799838883BE
:100C700026C08DB79EB7885790402091F8013091DB
:100C8000F90128173907C8F4AC01421B530B46176A
:100C9000570798F0CB0102964817590770F0820F5A
:100CA000931F9093F9018093F8019093FB01809337
:100CB000FA01F9016193719302C0E0E0F0E0CF0125
:100CC000DF91CF911F910F910895CF93DF939C01F6
:100CD000009709F48FC0EC0122971B821A82609161
:100CE000EC067091ED066115710581F4888199819A
:100CF000820F931F2091F8013091F90128173907CD
:100D000039F5D093F901C093F80174C0DB0140E0DC
:100D100050E0AC17BD0708F1BB83AA83FE01219107
:100D20003191E20FF31FAE17BF0779F48D919C91BB
:100D30001197280F391F2E5F3F4F39832883129652
:100D40008D919C9113979B838A834115510571F472
:100D5000D093ED06C093EC064DC012968D919C91F8
:100D60001397AD01009711F0DC01D3CFDA01139690
:100D7000DC93CE931297FA0121913191E20FF31F88
:100D8000CE17DF0769F488819981280F391F2E5FFC
:100D90003F4FFA01318320838A819B819383828331
:100DA000E0E0F0E0DB0112968D919C9113970097A3
:100DB00019F0BC01FD01F6CFAB014E5F5F4FDB01C7
:100DC0008D919C91840F951F2091F8013091F9012C
:100DD0002817390779F4309729F41092ED0610920C
:100DE000EC0602C013821282425050405093F90127
:100DF0004093F801DF91CF9108951F920F920FB6A3
:100E00000F9211242F933F938F939F93AF93BF9390
:100E100080913D0690913E06A0913F06B09140061C
:100E2000309141060196A11DB11D232F2D5F2D3755
:100E300020F02D570196A11DB11D209341068093EE
:100E40003D0690933E06A0933F06B09340068091E6
:100E5000390690913A06A0913B06B0913C06019666
:100E6000A11DB11D8093390690933A06A0933B06CD
:100E7000B0933C06BF91AF919F918F913F912F917D
:100E80000F900FBE0F901F9018958FB7F894209178
:100E90003D0630913E0640913F06509140068FBF7F
:100EA000B901CA0108959B01AC017FB7F894809104
:100EB000390690913A06A0913B06B0913C0666B582
:100EC000A89B05C06F3F19F00196A11DB11D7FBF02
:100ED000BA2FA92F982F8827860F911DA11DB11D0C
:100EE00062E0880F991FAA1FBB1F6A95D1F7BC014A
:100EF0002DC0FFB7F8948091390690913A06A091E1
:100F00003B06B0913C06E6B5A89B05C0EF3F19F043
:100F10000196A11DB11DFFBFBA2FA92F982F8827B9
:100F20008E0F911DA11DB11DE2E0880F991FAA1F10
:100F3000BB1FEA95D1F7861B970B885E9340C8F2DA
:100F4000215030404040504068517C4F21153105C0
:100F50004105510571F60895789484B5826084BD89
:100F600084B5816084BD85B5826085BD85B58160AD
:100F700085BDEEE6F0E0808181608083E1E8F0E00D
:100F80001082808182608083808181608083E0E83C
:100F9000F0E0808181608083E1EBF0E0808184601B
:100FA0008083E0EBF0E0808181608083EAE7F0E01D
:100FB0008081846080838081826080838081816081
:100FC00080838081806880831092C1000895CF93D0
:100FD000DF93482F50E0CA0186569F4FFC013491A1
:100FE0004A575F4FFA018491882369F190E0880F96
:100FF000991FFC01E859FF4FA591B491FC01EE58EF
:10100000FF4FC591D491662351F42FB7F8948C917A
:10101000932F909589238C93888189230BC062300C
:1010200061F42FB7F8948C91932F909589238C932A
:101030008881832B88832FBF06C09FB7F8948C913B
:10104000832B8C939FBFDF91CF91089508951F92BA
:101050000F920FB60F9211242F933F934F938F93BC
:101060009F93EF93FF938091C00082FD1DC040913C
:10107000C60020918206309183062F5F3F4F2F7369
:10108000307080918406909185062817390771F099
:10109000E0918206F0918306EE5BF94F4083309336
:1010A00083062093820602C08091C600FF91EF91D3
:1010B0009F918F914F913F912F910F900FBE0F9065
:1010C0001F901895E091D606F091D706E05CFF4F8F
:1010D0008191919120813181821B930B8F7390704C
:1010E000892B11F00E94260808951F920F920FB6C7
:1010F0000F9211242F933F938F939F93EF93FF931E
:101100002091C6063091C7068091C8069091C90605
:101110002817390731F48091C1008F7D8093C10079
:1011200014C0E091C806F091C906EA57F94F208132
:101130008091C8069091C90601968F739070909324
:10114000C9068093C8062093C600FF91EF919F9136
:101150008F913F912F910F900FBE0F901F90189578
:10116000AF92BF92DF92EF92FF920F931F93CF93B4
:10117000DF93EC017A018B01DD24403081EE5807CA
:1011800080E0680780E0780711F0DD24D39491E0D7
:10119000A92EB12CEC89FD89DD2069F0C50108A0DC
:1011A00002C0880F991F0A94E2F7808360E079E01B
:1011B0008DE390E005C0108260E874E88EE190E075
:1011C000A80197010E948F0A2150304040405040B2
:1011D000569547953795279580E12030380720F0C0
:1011E000DD2011F0DD24D6CFE889F9893083EA8942
:1011F000FB89208319A2EE89FF89408121E030E03C
:10120000C9010C8C02C0880F991F0A94E2F7482B81
:101210004083EE89FF894081C9010D8C02C0880F8F
:10122000991F0A94E2F7482B4083EE89FF89408199
:10123000C9010E8C02C0880F991F0A94E2F7482B4F
:101240004083EE89FF8980810F8C02C0220F331FFB
:101250000A94E2F7209528232083DF91CF911F91F4
:101260000F91FF90EF90DF90BF90AF900895DC0159
:101270001C96ED91FC911D97E05CFF4F21913191FF
:1012800080819181281B390B2F733070C90108951B
:10129000DC011C96ED91FC911D97E05CFF4F2081D5
:1012A0003181E054F040DF01AE5BBF4F8D919C91E6
:1012B00011972817390719F42FEF3FEF07C08D91C9
:1012C0009C91E80FF91F8081282F30E0C901089513
:1012D000DC011C96ED91FC911D97E05CFF4F208195
:1012E0003181E054F040DF01AE5BBF4F8D919C91A6
:1012F00011972817390719F42FEF3FEF10C08D9180
:101300009C911197E80FF91F20818D919C91119765
:1013100001968F73907011969C938E9330E0C90163
:101320000895DC0191968C919197882339F0549619
:10133000ED91FC915597808186FFF9CF91961C9293
:101340000895CF93DF93EC01EE85FF85E05CFF4FBE
:1013500020813181E054F0402F5F3F4F2F73307078
:10136000DF01AE5BBF4F8D919C9111972817390714
:10137000D1F3E05CFF4F80819181E054F040E80FB1
:10138000F91F6083EE85FF85E05CFF4F318320838A
:10139000EE89FF89208181E090E00F8C02C0880FE8
:1013A000991F0A94E2F7282B208381E089A3EC8916
:1013B000FD8980818064808381E090E0DF91CF911E
:1013C00008951092CD061092CC0688EE93E0A0E02E
:1013D000B0E08093CE069093CF06A093D006B09352
:1013E000D10680E092E09093CB068093CA0682E417
:1013F00096E09093D7068093D60686E896E0909381
:10140000D9068093D80685EC90E09093DB06809314
:10141000DA0684EC90E09093DD068093DC0680ECA5
:1014200090E09093DF068093DE0681EC90E090934D
:10143000E1068093E00682EC90E09093E3068093CF
:10144000E20686EC90E09093E5068093E40684E063
:101450008093E60683E08093E70687E08093E806C2
:1014600085E08093E90681E08093EA060895CF93B2
:10147000DF930E94AC070E94BC05C2E6D8E00E9440
:1014800083052097E1F30E946208F9CFCF92DF92A3
:10149000EF92FF920F931F93CF93DF937C016B0129
:1014A0008A01C0E0D0E00FC0D6016D916D01D70177
:1014B000ED91FC910190F081E02DC7010995C80FD5
:1014C000D91F015010400115110571F7CE01DF91B0
:1014D000CF911F910F91FF90EF90DF90CF900895E3
:1014E000CF93DF93EC016115710519F420E030E032
:1014F0000FC0DB010D900020E9F71197A61BB70B79
:10150000E881F9810280F381E02DAD0109959C010C
:10151000C901DF91CF9108950E94700A0895A1E258
:101520001A2EAA1BBB1BFD010DC0AA1FBB1FEE1F5D
:10153000FF1FA217B307E407F50720F0A21BB30BA8
:10154000E40BF50B661F771F881F991F1A9469F724
:1015500060957095809590959B01AC01BD01CF0180
:101560000895EE0FFF1F0590F491E02D09942F923E
:101570003F924F925F926F927F928F929F92AF9223
:10158000BF92CF92DF92EF92FF920F931F93CF9370
:10159000DF93CDB7DEB7CA1BDB0B0FB6F894DEBF07
:1015A0000FBECDBF09942A88398848885F846E842D
:1015B0007D848C849B84AA84B984C884DF80EE8077
:1015C000FD800C811B81AA81B981CE0FD11D0FB680
:1015D000F894DEBF0FBECDBFED01089510E0C6EC5C
:1015E000D0E004C0FE010E94B30A2296C83CD10795
:0615F000C9F7F894FFCFDB
:1015F600256C66004F6B0A000A0D00200900746511
:101606007374004F6B3A7465737420726573756CEE
:10161600743A25640A004661696C3A7465737420ED
:101626007265717569726520612073696E676C6594
:1016360020706172616D2E0A0068656C70004F6BD8
:101646003A76616C696420636F6D6D616E647320B8
:101656006172653D3E207374617475732C206C65F0
:1016660076656C732C2070756D702C206E6F72749D
:10167600682C20736F7574682C2073756D705F7499
:101686007269676765722C2073756D705F74726915
:10169600675F656E2C2068656C702E0A004661696E
:1016A6006C3A5468697320697320616E20496E76BE
:1016B600616C696420436D643A25730A0057656C52
:1016C600636F6D6520746F2074686520506F776551
:1016D600726C696E6520436F6E74726F6C6C6572A6
:1016E6000A000700E8030000EE06640000000000A0
:0C16F600A109460A370968094809910952
:00000001FF
