:100000000C9464000C948C000C948C000C948C0068
:100010000C948C000C948C000C948C000C948C0030
:100020000C948C000C948C000C948C000C948C0020
:100030000C948C000C948C000C948C000C948C0010
:100040000C947D060C948C000C94FB070C944908CE
:100050000C948C000C948C000C948C000C948C00F0
:100060000C948C000C948C000000000024002700ED
:100070002A0000000000250028002B0000000000DE
:1000800023002600290004040404040404040202DA
:100090000202020203030303030301020408102007
:1000A0004080010204081020010204081020000012
:1000B0000007000201000003040600000000000029
:1000C0000000E804B509E10411241FBECFEFD8E019
:1000D000DEBFCDBF11E0A0E0B1E0EAE4F7E102C08D
:1000E00005900D92A23DB107D9F716E0A2EDB1E05F
:1000F00001C01D92A23BB107E1F710E0C6ECD0E0D1
:1001000004C02297FE010E945D0BC23CD107C9F7D3
:100110000E940B0A0C94980B0C94000042ED51E0E5
:100120000E94BC000895FC018191861721F088236C
:10013000D9F7992708953197CF010895FB01DC0184
:100140008D91019080190110D9F3990B0895FB014D
:10015000DC0101900D920020E1F70895DC01992760
:100160008D91882341F0FB01019008160110E1F701
:10017000B9F71197CD010895009731F4DA018D9107
:100180009C91009709F40EC0DC01FB013D91219187
:10019000222319F03217C9F3FACF332331F4DA01ED
:1001A0001D921C928827992708951197AF93BF93AA
:1001B000FB013D912191321771F4332321F48827FB
:1001C0009927119702C01E921196FA01A193B0834C
:1001D0009F918F910895222369F7EACFAEE0B0E0B6
:1001E000E4EFF0E00C946F0B0D891E8986E08C83A0
:1001F0001A8309838FEF9FE79E838D839E01275E7D
:100200003F4FCE0101966F89788DA9010E9412019E
:100210002F813885020F131FF80110822E96E4E01B
:100220000C948B0BABE0B0E0E8E1F1E00C94610BD7
:100230003C012B015A01FC0117821682838181FD4A
:1002400003C06FEF7FEFC6C19AE0892E1E010894AC
:10025000211C311CF3012381F20123FD859123FF31
:1002600081912F01882309F4B2C1853239F423FD2D
:10027000859123FF81912F01853229F490E0B3010C
:100280000E940503E7CF982FFF24EE249924FFE175
:10029000FF15D0F09B3269F09C3228F4903259F06F
:1002A000933291F40EC09D3249F0903369F441E0ED
:1002B00024C052E0F52A84E0F82A28C098E0F92A00
:1002C00025C0E0E1FE2A22C0F7FC29C0892F805317
:1002D0008A3070F4F6FE05C0989C902C1124980E7C
:1002E00015C0E89CE02C1124E80EF0E2FF2A0EC0B5
:1002F0009E3229F4F6FC6BC140E4F42A07C09C3618
:1003000019F450E8F52A02C0983649F4F20123FDA9
:10031000959123FF91912F01992309F0B8CF892F4F
:100320008554833018F08052833038F444E050E034
:10033000A40EB51E5FE359830FC0933631F0933797
:1003400079F0933509F056C020C0F501808189838A
:1003500042E050E0A40EB51E610101E010E012C0C1
:10036000F501C080D180F6FC03C06FEF7FEF02C0C3
:10037000692D70E042E050E0A40EB51EC6010E9457
:10038000FA028C015FE7F52214C0F501C080D1802C
:10039000F6FC03C06FEF7FEF02C0692D70E042E012
:1003A00050E0A40EB51EC6010E94EF028C0150E879
:1003B000F52AF3FE07C01AC080E290E0B3010E9464
:1003C0000503EA948E2D90E008171907A8F30EC0D4
:1003D000F601F7FC8591F7FE81916F0190E0B30182
:1003E0000E940503E110EA94015010400115110527
:1003F00079F7EAC0943611F0993669F5F7FE08C02E
:10040000F501208131814281538184E090E00AC06E
:10041000F501808191819C01442737FD4095542F3F
:1004200082E090E0A80EB91E9FE6F92257FF09C0AE
:1004300050954095309521953F4F4F4F5F4FE0E8E5
:10044000FE2ACA01B901A1012AE030E00E9431036D
:10045000D82ED21840C0953729F41F2D1F7E2AE0D0
:1004600030E01DC01F2D197F9F3661F0903720F4BA
:10047000983509F0ACC00FC0903739F0983709F0C3
:10048000A6C004C028E030E00AC0106114FD14606A
:1004900020E130E004C014FD166020E132E017FFD7
:1004A00008C0F501608171818281938144E050E050
:1004B00008C0F50180819181BC0180E090E042E0BC
:1004C00050E0A40EB51EA1010E943103D82ED2180F
:1004D0008FE7F82EF122F6FE0BC05EEFF522D9145D
:1004E00038F4F4FE07C0F2FC05C08FEEF82202C01B
:1004F0001D2D01C0192DF4FE0DC0FE01ED0DF11DE5
:100500008081803319F499EEF92208C01F5FF2FE52
:1005100005C003C08F2D867809F01F5F0F2DF3FCF7
:1005200014C0F0FE0FC01E1510F09D2C0BC09D2CAA
:100530009E0C911A1E2D06C080E290E0B3010E942D
:1005400005031F5F1E15C0F304C01E1510F4E11A49
:1005500001C0EE2404FF0FC080E390E0B3010E94CD
:10056000050302FF1DC001FD03C088E790E00EC037
:1005700088E590E00BC0802F867891F001FF02C0E3
:100580008BE201C080E2F7FC8DE290E0B3010E94B3
:10059000050306C080E390E0B3010E9405039A942E
:1005A000D914C0F3DA94F101ED0DF11D808190E0D2
:1005B000B3010E940503DD20A9F706C080E290E0A8
:1005C000B3010E940503EA94EE20C1F743CEF30184
:1005D00066817781CB012B96E2E10C947D0BFC01C7
:1005E0000590615070400110D8F7809590958E0F5E
:1005F0009F1F0895FC016150704001900110D8F7D1
:10060000809590958E0F9F1F08950F931F93CF9302
:10061000DF938C01EB018B8181FF1BC082FF0DC03A
:100620002E813F818C819D812817390764F4E881F0
:10063000F9810193F983E88306C0E885F985802F65
:100640000995892B31F48E819F8101969F838E833A
:1006500002C00FEF1FEFC801DF91CF911F910F91E3
:100660000895FA01AA27283051F1203181F1E89448
:100670006F936E7F6E5F7F4F8F4F9F4FAF4FB1E095
:100680003ED0B4E03CD0670F781F891F9A1FA11D90
:10069000680F791F8A1F911DA11D6A0F711D811D91
:1006A000911DA11D20D009F468943F912AE0269F56
:1006B00011243019305D3193DEF6CF010895462FB5
:1006C0004770405D4193B3E00FD0C9F7F6CF462F96
:1006D0004F70405D4A3318F0495D31FD40524193FF
:1006E00002D0A9F7EACFB4E0A695979587957795BC
:1006F0006795BA95C9F700976105710508959B0143
:10070000AC010A2E06945795479537952795BA95CB
:10071000C9F7620F731F841F951FA01D0895FC0168
:10072000718360830895FC01128E138E10A20895C8
:10073000FC01868997890895EF92FF920F931F938A
:10074000CF93DF93EC01088D198DEE8CFF8CC801DF
:10075000B7010E94AE00009731F1C801B7010E94B5
:100760008E009F8B8E8B6E8D7F8D80E090E00E943F
:100770008E007E0100E010E012C0F70193838283B7
:100780000F5F1F4F6E8D7F8D80E090E00E948E0086
:1007900022E030E0E20EF31E0A30110511F000975E
:1007A00061F708A303C01F8B0E8B18A281E08B8F0B
:1007B000DF91CF911F910F91FF90EF9008951F93BC
:1007C000CF93DF93EC012FC0A881B981ED91FC910B
:1007D00011970680F781E02DCD010995182F8C8D9A
:1007E0009D8D612F70E00E9493009C018A8D232BC8
:1007F00099F0882351F0E88DF98DE80FF11D1082F2
:10080000CE010E949C0381E01DC08881998164E033
:1008100071E00E94170B07C0E88DF98DE80FF11DFC
:1008200010838F5F8A8FE881F981A081B18114964E
:100830002D913C911597CF01F901099518161906CC
:100840001CF280E0DF91CF911F9108950F931F93C9
:100850008C01FC01808D918D0E94E505F801868D4B
:10086000978D0E94E505F801848D958D0E94E50520
:100870001F910F9108950F931F938C01FC0111821A
:10088000108280E890E00E945E05F801808F918FD1
:10089000178A168A83E090E00E945E05F801848F33
:1008A000958F68E071E00E94A70083E090E00E94CD
:1008B0005E05F801868F978F6BE071E00E94A700BC
:1008C000F801128E138E10A21F910F910895CF92EE
:1008D000DF92EF92FF920F931F93CF93DF93EC0180
:1008E000D82ECD2E0E94DF03882309F446C0CE0106
:1008F0000E9498037C016EE071E00E949E000097C8
:1009000049F4888199816AE07BE64AE050E00E94E0
:10091000040B2FC0C70163E171E00E949E000097A5
:1009200029F48881998168E171E021C000D000D06C
:1009300000D0EDB7FEB7319604ED11E0ADB7BEB70C
:1009400012961C930E93119787E791E0938382830D
:10095000F582E4820E94EE008DB79EB706960FB630
:10096000F8949EBF0FBE8DBF88819981B8010E9407
:10097000170B8D2D9C2D0E949303DF91CF911F911A
:100980000F91FF90EF90DF90CF9008950E94260482
:1009900008950E943B0408958130910541F46F5FF2
:1009A0007F4F71F484ED95E00E94C9040895892B6E
:1009B00039F46F5F7F4F21F484ED95E00E94C60407
:1009C000089580E090E06FEF7FEF0E94CC040895DF
:1009D00081E090E06FEF7FEF0E94CC04089580915A
:1009E000FB0580FF04C08091B70161E003C08091E6
:1009F000B70160E00E94A6078091FB059091FC057D
:100A000001969093FC058093FB05089584ED95E095
:100A10000E9467040E94C5062091F7053091F805F1
:100A20004091F9055091FA05621B730B840B950BED
:100A30002091B9013091BA014091BB015091BC01A4
:100A4000261737074807590760F40E94C5066093C8
:100A5000F7057093F8058093F9059093FA050E94C5
:100A6000EF0461E070E080E090E00E94D3068091A6
:100A7000F5059091F60501969093F6058093F5059E
:100A800008950F931F930EE816E0C80140E855E261
:100A900060E070E00E94840884ED95E0B8010E9457
:100AA0008F038091B70161E00E946707C80167E981
:100AB00071E00E94170B1F910F9108950F931F93E0
:100AC000CF93DF93BC018230910510F462E070E0B7
:100AD000E091B006F091B106A0E0B0E040E050E057
:100AE00024C08081918186179707D0F086179707D9
:100AF00071F482819381109729F013969C938E93C1
:100B000012972CC09093B1068093B00627C0411570
:100B1000510519F08417950718F4EF018D01AC0108
:100B2000DF01828193819C01F9013097D1F6411553
:100B30005105F9F0CA01861B970B8430910580F4AA
:100B40008A819B810115110521F0F801938382832D
:100B500004C09093B1068093B006FE0132962FC078
:100B6000FE01E80FF91F61937193029799838883BF
:100B700026C08DB79EB7885790402091BD01309117
:100B8000BE0128173907C8F4AC01421B530B4617A6
:100B9000570798F0CB0102964817590770F0820F5B
:100BA000931F9093BE018093BD019093C0018093E9
:100BB000BF01F9016193719302C0E0E0F0E0CF0161
:100BC000DF91CF911F910F910895CF93DF939C01F7
:100BD000009709F48FC0EC0122971B821A82609162
:100BE000B0067091B1066115710581F48881998113
:100BF000820F931F2091BD013091BE012817390744
:100C000039F5D093BE01C093BD0174C0DB0140E053
:100C100050E0AC17BD0708F1BB83AA83FE01219108
:100C20003191E20FF31FAE17BF0779F48D919C91BC
:100C30001197280F391F2E5F3F4F39832883129653
:100C40008D919C9113979B838A834115510571F473
:100C5000D093B106C093B0064DC012968D919C9171
:100C60001397AD01009711F0DC01D3CFDA01139691
:100C7000DC93CE931297FA0121913191E20FF31F89
:100C8000CE17DF0769F488819981280F391F2E5FFD
:100C90003F4FFA01318320838A819B819383828332
:100CA000E0E0F0E0DB0112968D919C9113970097A4
:100CB00019F0BC01FD01F6CFAB014E5F5F4FDB01C8
:100CC0008D919C91840F951F2091BD013091BE01A3
:100CD0002817390779F4309729F41092B106109249
:100CE000B00602C013821282425050405093BE019F
:100CF0004093BD01DF91CF9108951F920F920FB6DF
:100D00000F9211242F933F938F939F93AF93BF9391
:100D10008091010690910206A0910306B09104060D
:100D2000309105060196A11DB11D232F2D5F2D3792
:100D300020F02D570196A11DB11D2093050680932B
:100D4000010690930206A0930306B09304068091D7
:100D5000FD059091FE05A091FF05B091000601965A
:100D6000A11DB11D8093FD059093FE05A093FF0585
:100D7000B0930006BF91AF919F918F913F912F91BA
:100D80000F900FBE0F901F9018958FB7F894209179
:100D900001063091020640910306509104068FBF70
:100DA000B901CA0108959B01AC017FB7F894809105
:100DB000FD059091FE05A091FF05B091000666B576
:100DC000A89B05C06F3F19F00196A11DB11D7FBF03
:100DD000BA2FA92F982F8827860F911DA11DB11D0D
:100DE00062E0880F991FAA1FBB1F6A95D1F7BC014B
:100DF0002DC0FFB7F8948091FD059091FE05A0915C
:100E0000FF05B0910006E6B5A89B05C0EF3F19F0BD
:100E10000196A11DB11DFFBFBA2FA92F982F8827BA
:100E20008E0F911DA11DB11DE2E0880F991FAA1F11
:100E3000BB1FEA95D1F7861B970B885E9340C8F2DB
:100E4000215030404040504068517C4F21153105C1
:100E50004105510571F60895789484B5826084BD8A
:100E600084B5816084BD85B5826085BD85B58160AE
:100E700085BDEEE6F0E0808181608083E1E8F0E00E
:100E80001082808182608083808181608083E0E83D
:100E9000F0E0808181608083E1EBF0E0808184601C
:100EA0008083E0EBF0E0808181608083EAE7F0E01E
:100EB0008081846080838081826080838081816082
:100EC00080838081806880831092C1000895CF93D1
:100ED000DF93482F50E0CA0186569F4FFC013491A2
:100EE0004A575F4FFA018491882369F190E0880F97
:100EF000991FFC01E859FF4FA591B491FC01EE58F0
:100F0000FF4FC591D491662351F42FB7F8948C917B
:100F1000932F909589238C93888189230BC062300D
:100F200061F42FB7F8948C91932F909589238C932B
:100F30008881832B88832FBF06C09FB7F8948C913C
:100F4000832B8C939FBFDF91CF910895482F50E062
:100F5000CA0182559F4FFC012491CA0186569F4FBA
:100F6000FC0194914A575F4FFA013491332309F4FD
:100F700040C0222351F1233071F0243028F4213075
:100F8000A1F0223011F514C02630B1F02730C1F0A5
:100F90002430D9F404C0809180008F7703C0809101
:100FA00080008F7D8093800010C084B58F7702C051
:100FB00084B58F7D84BD09C08091B0008F7703C058
:100FC0008091B0008F7D8093B000E32FF0E0EE0FB2
:100FD000FF1FEE58FF4FA591B4912FB7F8946623E9
:100FE00021F48C919095892302C08C91892B8C934C
:100FF0002FBF089508951F920F920FB60F921124DC
:101000002F933F934F938F939F93EF93FF938091F1
:10101000C00082FD1DC04091C6002091460630915F
:1010200047062F5F3F4F2F73307080914806909195
:1010300049062817390771F0E0914606F0914706F6
:10104000EA5FF94F4083309347062093460602C07B
:101050008091C600FF91EF919F918F914F913F91A9
:101060002F910F900FBE0F901F901895E0919A0648
:10107000F0919B06E05CFF4F81919191208131813D
:10108000821B930B8F739070892B11F00E94FA07CB
:1010900008951F920F920FB60F9211242F933F9332
:1010A0008F939F93EF93FF9320918A0630918B0645
:1010B00080918C0690918D062817390731F4809124
:1010C000C1008F7D8093C10014C0E0918C06F09127
:1010D0008D06E65BF94F208180918C0690918D06FC
:1010E00001968F73907090938D0680938C06209359
:1010F000C600FF91EF919F918F913F912F910F909B
:101100000FBE0F901F901895AF92BF92DF92EF9293
:10111000FF920F931F93CF93DF93EC017A018B0122
:10112000DD24403081EE580780E0680780E07807D2
:1011300011F0DD24D39491E0A92EB12CEC89FD8926
:10114000DD2069F0C50108A002C0880F991F0A942C
:10115000E2F7808360E079E08DE390E005C01082E3
:1011600060E874E88EE190E0A80197010E94390BD5
:10117000215030404040504056954795379527952F
:1011800080E12030380720F0DD2011F0DD24D6CFBB
:10119000E889F9893083EA89FB89208319A2EE89DD
:1011A000FF89408121E030E0C9010C8C02C0880F2A
:1011B000991F0A94E2F7482B4083EE89FF8940810A
:1011C000C9010D8C02C0880F991F0A94E2F7482BC1
:1011D0004083EE89FF894081C9010E8C02C0880FCF
:1011E000991F0A94E2F7482B4083EE89FF8980819A
:1011F0000F8C02C0220F331F0A94E2F72095282398
:101200002083DF91CF911F910F91FF90EF90DF909E
:10121000BF90AF900895DC011C96ED91FC911D9755
:10122000E05CFF4F2191319180819181281B390B26
:101230002F733070C9010895DC011C96ED91FC916B
:101240001D97E05CFF4F20813181E054F040DF01C9
:10125000AE5BBF4F8D919C9111972817390719F4F8
:101260002FEF3FEF07C08D919C91E80FF91F808110
:10127000282F30E0C9010895DC011C96ED91FC9106
:101280001D97E05CFF4F20813181E054F040DF0189
:10129000AE5BBF4F8D919C9111972817390719F4B8
:1012A0002FEF3FEF10C08D919C911197E80FF91F20
:1012B00020818D919C91119701968F73907011965A
:1012C0009C938E9330E0C9010895DC0191968C9136
:1012D0009197882339F05496ED91FC915597808130
:1012E00086FFF9CF91961C920895CF93DF93EC017E
:1012F000EE85FF85E05CFF4F20813181E054F040B6
:101300002F5F3F4F2F733070DF01AE5BBF4F8D916A
:101310009C91119728173907D1F3E05CFF4F80812A
:101320009181E054F040E80FF91F6083EE85FF855E
:10133000E05CFF4F31832083EE89FF89208181E0CB
:1013400090E00F8C02C0880F991F0A94E2F7282BB7
:10135000208381E089A3EC89FD898081806480837A
:1013600081E090E0DF91CF91089510929106109264
:10137000900688EE93E0A0E0B0E080939206909310
:101380009306A0939406B093950685EC91E0909314
:101390008F0680938E0686E096E090939B0680935E
:1013A0009A068AE496E090939D0680939C0685ECCD
:1013B00090E090939F0680939E0684EC90E090933B
:1013C000A1068093A00680EC90E09093A306809302
:1013D000A20681EC90E09093A5068093A40682EC8F
:1013E00090E09093A7068093A60686EC90E09093F9
:1013F000A9068093A80684E08093AA0683E08093E0
:10140000AB0687E08093AC0685E08093AD0681E073
:101410008093AE060895CF93DF930E942C070E941D
:101420004105C6E3D8E00E9406052097E1F30E943B
:101430003608F9CFCF92DF92EF92FF920F931F936E
:10144000CF93DF937C016B018A01C0E0D0E00FC035
:10145000D6016D916D01D701ED91FC910190F08164
:10146000E02DC7010995C80FD91F01501040011583
:10147000110571F7CE01DF91CF911F910F91FF9070
:10148000EF90DF90CF900895CF93DF93EC0161153B
:10149000710519F420E030E00FC0DB010D90002051
:1014A000E9F71197A61BB70BE881F9810280F38158
:1014B000E02DAD0109959C01C901DF91CF910895FF
:1014C0004F925F927F928F929F92AF92BF92CF92F4
:1014D000DF92EF92FF920F931F93DF93CF93CDB7DD
:1014E000DEB7A1970FB6F894DEBF0FBECDBF2C01BB
:1014F000742ECB01223008F42AE019A231E2C32E67
:10150000D12CCC0EDD1E822E9924AA24BB24672D5B
:10151000752FA50194010E94390B79018A01C80138
:10152000B701A50194010E941A0B472D461B089490
:10153000C108D1084A3014F4405D01C0495CF6018D
:101540004083E114F1040105110521F07E2C5F2D8B
:10155000C801DDCFC201B6010E94440AA1960FB6B0
:10156000F894DEBF0FBECDBFCF91DF911F910F91D9
:10157000FF90EF90DF90CF90BF90AF909F908F90B3
:101580007F905F904F900895CF92DF92EF92FF92FD
:101590000F931F93CF93DF93EC016A017B01211519
:1015A000310541F4E881F9810190F081E02D642F4B
:1015B00009951FC02A303105D1F477FF17C0E881A3
:1015C000F9810190F081E02D6DE209958C014427AD
:1015D0005527BA014C195D096E097F09CE012AE031
:1015E0000E94600A9801280F391F04C02AE00E9457
:1015F000600A9C01C901DF91CF911F910F91FF906B
:10160000EF90DF90CF900895EF92FF920F931F938A
:101610007B019A010027F7FC0095102FB801A70164
:101620000E94C40A1F910F91FF90EF9008950E94AD
:10163000440A0895629FD001739FF001829FE00DDC
:10164000F11D649FE00DF11D929FF00D839FF00D41
:10165000749FF00D659FF00D9927729FB00DE11DED
:10166000F91F639FB00DE11DF91FBD01CF011124CA
:101670000895A1E21A2EAA1BBB1BFD010DC0AA1FD3
:10168000BB1FEE1FFF1FA217B307E407F50720F0EB
:10169000A21BB30BE40BF50B661F771F881F991F66
:1016A0001A9469F760957095809590959B01AC01AF
:1016B000BD01CF010895EE0FFF1F0590F491E02DBD
:1016C00009942F923F924F925F926F927F928F92E6
:1016D0009F92AF92BF92CF92DF92EF92FF920F93C1
:1016E0001F93CF93DF93CDB7DEB7CA1BDB0B0FB6CB
:1016F000F894DEBF0FBECDBF09942A883988488888
:101700005F846E847D848C849B84AA84B984C8841D
:10171000DF80EE80FD800C811B81AA81B981CE0F14
:10172000D11D0FB6F894DEBF0FBECDBFED010895F9
:1017300010E0C6ECD0E004C0FE010E945D0B2296D2
:0A174000C83CD107C9F7F894FFCFA9
:10174A00256C66004F6B0A000A0D002009007465BB
:10175A0073740068656C70004F6B3A76616C6964EB
:10176A0020636F6D6D616E6473206172653D3E200A
:10177A007374617475732C206C6576656C732C2098
:10178A0070756D702C206E6F7274682C20736F7573
:10179A0074682C2073756D705F74726967676572FF
:1017AA002C2073756D705F747269675F656E2C208B
:1017BA0068656C702E0A004661696C3A54686973F0
:1017CA0020697320616E20496E76616C69642043DA
:1017DA006D643A25730A0057656C636F6D652074F2
:1017EA006F207468652050756D7020436F6E747237
:1017FA006F6C6C65720A000D00E8030000B20664A3
:10180A00000000000075091A0A0B093C091C096549
:02181A000900C3
:00000001FF
